{
  "transactions": [
    {
      "hash": "0xa29a433272232f46fb43d3a53745af004b40b41b28504c01dee48c600bef37d1",
      "transactionType": "CREATE",
      "contractName": "FontColor",
      "contractAddress": "0xA03F82d3b1e07F8C72c6fEB22A4Cca6fa1094F0b",
      "function": null,
      "arguments": null,
      "rpc": "https://goerli.infura.io/v3/9aa3d95b3bc440fa88ea12eaa4456161",
      "transaction": {
        "type": "0x02",
        "from": "0x2788ed26d44c3b7d6c4519a8beefa2e10458ef00",
        "gas": "0x5bcab",
        "value": "0x0",
        "data": "0x608060405234801561001057600080fd5b50610445806100206000396000f3fe608060405234801561001057600080fd5b50600436106100415760003560e01c8063174ab3ab14610046578063402241f714610064578063e54d6e7314610079575b600080fd5b61004e610081565b60405161005b91906101b1565b60405180910390f35b610077610072366004610215565b61010f565b005b61004e61011f565b6000805461008e906102c6565b80601f01602080910402602001604051908101604052809291908181526020018280546100ba906102c6565b80156101075780601f106100dc57610100808354040283529160200191610107565b820191906000526020600020905b8154815290600101906020018083116100ea57829003601f168201915b505050505081565b600061011b828261034f565b5050565b60606000805461012e906102c6565b80601f016020809104026020016040519081016040528092919081815260200182805461015a906102c6565b80156101a75780601f1061017c576101008083540402835291602001916101a7565b820191906000526020600020905b81548152906001019060200180831161018a57829003601f168201915b5050505050905090565b600060208083528351808285015260005b818110156101de578581018301518582016040015282016101c2565b506000604082860101526040601f19601f8301168501019250505092915050565b634e487b7160e01b600052604160045260246000fd5b60006020828403121561022757600080fd5b813567ffffffffffffffff8082111561023f57600080fd5b818401915084601f83011261025357600080fd5b813581811115610265576102656101ff565b604051601f8201601f19908116603f0116810190838211818310171561028d5761028d6101ff565b816040528281528760208487010111156102a657600080fd5b826020860160208301376000928101602001929092525095945050505050565b600181811c908216806102da57607f821691505b6020821081036102fa57634e487b7160e01b600052602260045260246000fd5b50919050565b601f82111561034a57600081815260208120601f850160051c810160208610156103275750805b601f850160051c820191505b8181101561034657828155600101610333565b5050505b505050565b815167ffffffffffffffff811115610369576103696101ff565b61037d8161037784546102c6565b84610300565b602080601f8311600181146103b2576000841561039a5750858301515b600019600386901b1c1916600185901b178555610346565b600085815260208120601f198616915b828110156103e1578886015182559484019460019091019084016103c2565b50858210156103ff5787850151600019600388901b60f8161c191681555b5050505050600190811b0190555056fea26469706673582212201c7c1e4ce5f07ba0088b2e76c24fc32e1693ca3bf624537a8b23059f9c575d1964736f6c63430008110033",
        "nonce": "0x1",
        "accessList": []
      },
      "additionalContracts": []
    },
    {
      "hash": "0x791e076678acd7bc138fbd85131be94e319f3f9e1a0a5db5e62de31b5f532a02",
      "transactionType": "CALL",
      "contractName": "FontColor",
      "contractAddress": "0xA03F82d3b1e07F8C72c6fEB22A4Cca6fa1094F0b",
      "function": "setFontColor(string)",
      "arguments": [
        "Red"
      ],
      "rpc": "https://goerli.infura.io/v3/9aa3d95b3bc440fa88ea12eaa4456161",
      "transaction": {
        "type": "0x02",
        "from": "0x2788ed26d44c3b7d6c4519a8beefa2e10458ef00",
        "to": "0xa03f82d3b1e07f8c72c6feb22a4cca6fa1094f0b",
        "gas": "0xf05b",
        "value": "0x0",
        "data": "0x402241f7000000000000000000000000000000000000000000000000000000000000002000000000000000000000000000000000000000000000000000000000000000035265640000000000000000000000000000000000000000000000000000000000",
        "nonce": "0x2",
        "accessList": []
      },
      "additionalContracts": []
    }
  ],
  "receipts": [
    {
      "transactionHash": "0xa29a433272232f46fb43d3a53745af004b40b41b28504c01dee48c600bef37d1",
      "transactionIndex": "0x13",
      "blockHash": "0xce8752b9d3d4e1281a5f8ea754fe5a597f156f8c03d22cd129dfee823914b31e",
      "blockNumber": "0x7e7480",
      "from": "0x2788Ed26d44C3b7d6c4519A8BeEfa2e10458ef00",
      "to": null,
      "cumulativeGasUsed": "0x2564ac",
      "gasUsed": "0x469bf",
      "contractAddress": "0xA03F82d3b1e07F8C72c6fEB22A4Cca6fa1094F0b",
      "logs": [],
      "status": "0x1",
      "logsBloom": "0x00000000000000000000000000000000000000000000000000000000000000000000000000000000000000000000000000000000000000000000000000000000000000000000000000000000000000000000000000000000000000000000000000000000000000000000000000000000000000000000000000000000000000000000000000000000000000000000000000000000000000000000000000000000000000000000000000000000000000000000000000000000000000000000000000000000000000000000000000000000000000000000000000000000000000000000000000000000000000000000000000000000000000000000000000000000",
      "type": "0x2",
      "effectiveGasPrice": "0xc27603c24"
    },
    {
      "transactionHash": "0x791e076678acd7bc138fbd85131be94e319f3f9e1a0a5db5e62de31b5f532a02",
      "transactionIndex": "0x14",
      "blockHash": "0xce8752b9d3d4e1281a5f8ea754fe5a597f156f8c03d22cd129dfee823914b31e",
      "blockNumber": "0x7e7480",
      "from": "0x2788Ed26d44C3b7d6c4519A8BeEfa2e10458ef00",
      "to": "0xA03F82d3b1e07F8C72c6fEB22A4Cca6fa1094F0b",
      "cumulativeGasUsed": "0x2612b0",
      "gasUsed": "0xae04",
      "contractAddress": null,
      "logs": [],
      "status": "0x1",
      "logsBloom": "0x00000000000000000000000000000000000000000000000000000000000000000000000000000000000000000000000000000000000000000000000000000000000000000000000000000000000000000000000000000000000000000000000000000000000000000000000000000000000000000000000000000000000000000000000000000000000000000000000000000000000000000000000000000000000000000000000000000000000000000000000000000000000000000000000000000000000000000000000000000000000000000000000000000000000000000000000000000000000000000000000000000000000000000000000000000000",
      "type": "0x2",
      "effectiveGasPrice": "0xc27603c24"
    }
  ],
  "libraries": [],
  "pending": [],
  "path": "C:/working/web3WithFoundry/broadcast\\FontColor.s.sol\\5\\run-latest.json",
  "returns": {},
  "timestamp": 1673348657,
  "chain": 5,
  "multi": false,
  "commit": "502afa5"
}